{
  "_format": "hh-sol-artifact-1",
  "contractName": "MessagePortal",
  "sourceName": "contracts/MessagePortal.sol",
  "abi": [
    {
      "anonymous": false,
      "inputs": [
        {
          "indexed": true,
          "internalType": "address",
          "name": "sender",
          "type": "address"
        },
        {
          "indexed": false,
          "internalType": "uint256",
          "name": "timestamp",
          "type": "uint256"
        },
        {
          "indexed": false,
          "internalType": "string",
          "name": "context",
          "type": "string"
        }
      ],
      "name": "NewMessage",
      "type": "event"
    },
    {
      "inputs": [],
      "name": "getCurrentMessages",
      "outputs": [
        {
          "components": [
            {
              "internalType": "address",
              "name": "sender",
              "type": "address"
            },
            {
              "internalType": "uint256",
              "name": "timestamp",
              "type": "uint256"
            },
            {
              "internalType": "string",
              "name": "context",
              "type": "string"
            }
          ],
          "internalType": "struct MessagePortal.Message[]",
          "name": "",
          "type": "tuple[]"
        }
      ],
      "stateMutability": "view",
      "type": "function"
    },
    {
      "inputs": [
        {
          "internalType": "string",
          "name": "_message",
          "type": "string"
        }
      ],
      "name": "message",
      "outputs": [],
      "stateMutability": "nonpayable",
      "type": "function"
    }
  ],
  "bytecode": "0x608060405234801561001057600080fd5b50610a2b806100206000396000f3fe608060405234801561001057600080fd5b50600436106100365760003560e01c806305c766d11461003b57806317b8bdae14610057575b600080fd5b61005560048036038101906100509190610438565b610075565b005b61005f61018d565b60405161006c919061066c565b60405180910390f35b600060405180606001604052803373ffffffffffffffffffffffffffffffffffffffff16815260200142815260200183815250908060018154018082558091505060019003906000526020600020906003020160009091909190915060008201518160000160006101000a81548173ffffffffffffffffffffffffffffffffffffffff021916908373ffffffffffffffffffffffffffffffffffffffff160217905550602082015181600101556040820151816002019081610137919061089a565b5050503373ffffffffffffffffffffffffffffffffffffffff167f0ff94fec3112de81726d79117e091c7c9d47da8a38c73e8cec7ee350a61898a642836040516101829291906109c5565b60405180910390a250565b60606000805480602002602001604051908101604052809291908181526020016000905b828210156102d557838290600052602060002090600302016040518060600160405290816000820160009054906101000a900473ffffffffffffffffffffffffffffffffffffffff1673ffffffffffffffffffffffffffffffffffffffff1673ffffffffffffffffffffffffffffffffffffffff16815260200160018201548152602001600282018054610244906106bd565b80601f0160208091040260200160405190810160405280929190818152602001828054610270906106bd565b80156102bd5780601f10610292576101008083540402835291602001916102bd565b820191906000526020600020905b8154815290600101906020018083116102a057829003601f168201915b505050505081525050815260200190600101906101b1565b50505050905090565b6000604051905090565b600080fd5b600080fd5b600080fd5b600080fd5b6000601f19601f8301169050919050565b7f4e487b7100000000000000000000000000000000000000000000000000000000600052604160045260246000fd5b610345826102fc565b810181811067ffffffffffffffff821117156103645761036361030d565b5b80604052505050565b60006103776102de565b9050610383828261033c565b919050565b600067ffffffffffffffff8211156103a3576103a261030d565b5b6103ac826102fc565b9050602081019050919050565b82818337600083830152505050565b60006103db6103d684610388565b61036d565b9050828152602081018484840111156103f7576103f66102f7565b5b6104028482856103b9565b509392505050565b600082601f83011261041f5761041e6102f2565b5b813561042f8482602086016103c8565b91505092915050565b60006020828403121561044e5761044d6102e8565b5b600082013567ffffffffffffffff81111561046c5761046b6102ed565b5b6104788482850161040a565b91505092915050565b600081519050919050565b600082825260208201905092915050565b6000819050602082019050919050565b600073ffffffffffffffffffffffffffffffffffffffff82169050919050565b60006104d8826104ad565b9050919050565b6104e8816104cd565b82525050565b6000819050919050565b610501816104ee565b82525050565b600081519050919050565b600082825260208201905092915050565b60005b83811015610541578082015181840152602081019050610526565b60008484015250505050565b600061055882610507565b6105628185610512565b9350610572818560208601610523565b61057b816102fc565b840191505092915050565b600060608301600083015161059e60008601826104df565b5060208301516105b160208601826104f8565b50604083015184820360408601526105c9828261054d565b9150508091505092915050565b60006105e28383610586565b905092915050565b6000602082019050919050565b600061060282610481565b61060c818561048c565b93508360208202850161061e8561049d565b8060005b8581101561065a578484038952815161063b85826105d6565b9450610646836105ea565b925060208a01995050600181019050610622565b50829750879550505050505092915050565b6000602082019050818103600083015261068681846105f7565b905092915050565b7f4e487b7100000000000000000000000000000000000000000000000000000000600052602260045260246000fd5b600060028204905060018216806106d557607f821691505b6020821081036106e8576106e761068e565b5b50919050565b60008190508160005260206000209050919050565b60006020601f8301049050919050565b600082821b905092915050565b6000600883026107507fffffffffffffffffffffffffffffffffffffffffffffffffffffffffffffffff82610713565b61075a8683610713565b95508019841693508086168417925050509392505050565b6000819050919050565b600061079761079261078d846104ee565b610772565b6104ee565b9050919050565b6000819050919050565b6107b18361077c565b6107c56107bd8261079e565b848454610720565b825550505050565b600090565b6107da6107cd565b6107e58184846107a8565b505050565b5b81811015610809576107fe6000826107d2565b6001810190506107eb565b5050565b601f82111561084e5761081f816106ee565b61082884610703565b81016020851015610837578190505b61084b61084385610703565b8301826107ea565b50505b505050565b600082821c905092915050565b600061087160001984600802610853565b1980831691505092915050565b600061088a8383610860565b9150826002028217905092915050565b6108a382610507565b67ffffffffffffffff8111156108bc576108bb61030d565b5b6108c682546106bd565b6108d182828561080d565b600060209050601f83116001811461090457600084156108f2578287015190505b6108fc858261087e565b865550610964565b601f198416610912866106ee565b60005b8281101561093a57848901518255600182019150602085019450602081019050610915565b868310156109575784890151610953601f891682610860565b8355505b6001600288020188555050505b505050505050565b610975816104ee565b82525050565b600082825260208201905092915050565b600061099782610507565b6109a1818561097b565b93506109b1818560208601610523565b6109ba816102fc565b840191505092915050565b60006040820190506109da600083018561096c565b81810360208301526109ec818461098c565b9050939250505056fea2646970667358221220d3eba48e11abddf92810b2c14c9d6d6019fa147fea1dc4602b3545f7068ccb6f64736f6c63430008110033",
  "linkReferences": {},
  "deployedLinkReferences": {}
}